{
  "_format": "hh-sol-artifact-1",
  "contractName": "Central",
  "sourceName": "contracts/Central.sol",
  "abi": [
    {
      "inputs": [],
      "stateMutability": "nonpayable",
      "type": "constructor"
    },
    {
      "inputs": [
        {
          "internalType": "address",
          "name": "_walletaddress",
          "type": "address"
        }
      ],
      "name": "IsManufracturer",
      "outputs": [
        {
          "internalType": "bool",
          "name": "",
          "type": "bool"
        }
      ],
      "stateMutability": "view",
      "type": "function"
    },
    {
      "inputs": [
        {
          "internalType": "address",
          "name": "_walletaddress",
          "type": "address"
        }
      ],
      "name": "IsSupplier",
      "outputs": [
        {
          "internalType": "bool",
          "name": "",
          "type": "bool"
        }
      ],
      "stateMutability": "view",
      "type": "function"
    },
    {
      "inputs": [
        {
          "internalType": "address",
          "name": "_newWalletAddress",
          "type": "address"
        },
        {
          "internalType": "string",
          "name": "_newUsername",
          "type": "string"
        },
        {
          "internalType": "bool",
          "name": "_isManufacturer",
          "type": "bool"
        }
      ],
      "name": "addMemberForVoting",
      "outputs": [],
      "stateMutability": "nonpayable",
      "type": "function"
    },
    {
      "inputs": [
        {
          "internalType": "string",
          "name": "_hashCode",
          "type": "string"
        },
        {
          "internalType": "address",
          "name": "_productContractAddress",
          "type": "address"
        }
      ],
      "name": "addProductByManufacturer",
      "outputs": [],
      "stateMutability": "nonpayable",
      "type": "function"
    },
    {
      "inputs": [
        {
          "internalType": "string",
          "name": "_hashCode",
          "type": "string"
        }
      ],
      "name": "addProductBySupplier",
      "outputs": [],
      "stateMutability": "nonpayable",
      "type": "function"
    },
    {
      "inputs": [
        {
          "internalType": "string",
          "name": "_productName",
          "type": "string"
        }
      ],
      "name": "createManufacturerProductContract",
      "outputs": [],
      "stateMutability": "nonpayable",
      "type": "function"
    },
    {
      "inputs": [],
      "name": "getAllManufacturers",
      "outputs": [
        {
          "components": [
            {
              "internalType": "string",
              "name": "username",
              "type": "string"
            },
            {
              "internalType": "address",
              "name": "organizationContract",
              "type": "address"
            }
          ],
          "internalType": "struct Central.OrganizationInfo[]",
          "name": "",
          "type": "tuple[]"
        }
      ],
      "stateMutability": "view",
      "type": "function"
    },
    {
      "inputs": [
        {
          "internalType": "address",
          "name": "_contractAddress",
          "type": "address"
        }
      ],
      "name": "getAllProductInstances",
      "outputs": [
        {
          "components": [
            {
              "internalType": "string",
              "name": "hashcode",
              "type": "string"
            },
            {
              "internalType": "uint256",
              "name": "timestamp",
              "type": "uint256"
            }
          ],
          "internalType": "struct Storage.ProductInfo[]",
          "name": "",
          "type": "tuple[]"
        }
      ],
      "stateMutability": "view",
      "type": "function"
    },
    {
      "inputs": [],
      "name": "getAllProductsInfo",
      "outputs": [
        {
          "components": [
            {
              "internalType": "string",
              "name": "hashCode",
              "type": "string"
            },
            {
              "internalType": "string",
              "name": "manufacturer",
              "type": "string"
            },
            {
              "internalType": "string",
              "name": "seller",
              "type": "string"
            },
            {
              "internalType": "address",
              "name": "sellerAddress",
              "type": "address"
            },
            {
              "internalType": "uint256",
              "name": "manufacturedTime",
              "type": "uint256"
            },
            {
              "internalType": "uint256",
              "name": "registeredTime",
              "type": "uint256"
            }
          ],
          "internalType": "struct Central.AllInfo[]",
          "name": "",
          "type": "tuple[]"
        }
      ],
      "stateMutability": "view",
      "type": "function"
    },
    {
      "inputs": [
        {
          "internalType": "address",
          "name": "_walletAddress",
          "type": "address"
        }
      ],
      "name": "getAllSelfProducts",
      "outputs": [
        {
          "components": [
            {
              "internalType": "string",
              "name": "productName",
              "type": "string"
            },
            {
              "internalType": "address",
              "name": "contractAddress",
              "type": "address"
            }
          ],
          "internalType": "struct Central.ProductInfo[]",
          "name": "",
          "type": "tuple[]"
        }
      ],
      "stateMutability": "view",
      "type": "function"
    },
    {
      "inputs": [],
      "name": "getAllSuppliers",
      "outputs": [
        {
          "components": [
            {
              "internalType": "string",
              "name": "username",
              "type": "string"
            },
            {
              "internalType": "address",
              "name": "addressInfo",
              "type": "address"
            }
          ],
          "internalType": "struct Central.SupplierInfo[]",
          "name": "",
          "type": "tuple[]"
        }
      ],
      "stateMutability": "view",
      "type": "function"
    },
    {
      "inputs": [],
      "name": "getOpenVotingMembers",
      "outputs": [
        {
          "components": [
            {
              "internalType": "address",
              "name": "walletAddress",
              "type": "address"
            },
            {
              "internalType": "string",
              "name": "nominatedBy",
              "type": "string"
            },
            {
              "internalType": "string",
              "name": "username",
              "type": "string"
            },
            {
              "internalType": "uint256",
              "name": "yesVotes",
              "type": "uint256"
            },
            {
              "internalType": "uint256",
              "name": "noVotes",
              "type": "uint256"
            },
            {
              "internalType": "bool",
              "name": "isManufacturer",
              "type": "bool"
            }
          ],
          "internalType": "struct Central.VotingMember[]",
          "name": "",
          "type": "tuple[]"
        }
      ],
      "stateMutability": "view",
      "type": "function"
    },
    {
      "inputs": [
        {
          "internalType": "string",
          "name": "_productHashCode",
          "type": "string"
        }
      ],
      "name": "verifyProductByCustomer",
      "outputs": [
        {
          "components": [
            {
              "internalType": "string",
              "name": "hashCode",
              "type": "string"
            },
            {
              "internalType": "string",
              "name": "manufacturer",
              "type": "string"
            },
            {
              "internalType": "string",
              "name": "seller",
              "type": "string"
            },
            {
              "internalType": "address",
              "name": "sellerAddress",
              "type": "address"
            },
            {
              "internalType": "uint256",
              "name": "manufacturedTime",
              "type": "uint256"
            },
            {
              "internalType": "uint256",
              "name": "registeredTime",
              "type": "uint256"
            }
          ],
          "internalType": "struct Central.AllInfo",
          "name": "",
          "type": "tuple"
        }
      ],
      "stateMutability": "view",
      "type": "function"
    },
    {
      "inputs": [
        {
          "internalType": "string",
          "name": "_productHashCode",
          "type": "string"
        }
      ],
      "name": "verifyProductBySupplier",
      "outputs": [
        {
          "internalType": "bool",
          "name": "",
          "type": "bool"
        }
      ],
      "stateMutability": "view",
      "type": "function"
    },
    {
      "inputs": [
        {
          "internalType": "address",
          "name": "_newWalletAddress",
          "type": "address"
        },
        {
          "internalType": "bool",
          "name": "_vote",
          "type": "bool"
        }
      ],
      "name": "voteToAddWallet",
      "outputs": [],
      "stateMutability": "nonpayable",
      "type": "function"
    }
  ],
  "bytecode": "0x60806040523480156200001157600080fd5b50600760405180604001604052806040518060400160405280601e81526020017f416e6b6974205265616c20457374617465205076742e204c696d69746564000081525081526020013373ffffffffffffffffffffffffffffffffffffffff1681525090806001815401808255809150506001900390600052602060002090600202016000909190919091506000820151816000019081620000b491906200040b565b5060208201518160010160006101000a81548173ffffffffffffffffffffffffffffffffffffffff021916908373ffffffffffffffffffffffffffffffffffffffff160217905550505060405180604001604052806001151581526020016000815250600460003373ffffffffffffffffffffffffffffffffffffffff1673ffffffffffffffffffffffffffffffffffffffff16815260200190815260200160002060008201518160000160006101000a81548160ff021916908315150217905550602082015181600101559050506001600a81905550620004f2565b600081519050919050565b7f4e487b7100000000000000000000000000000000000000000000000000000000600052604160045260246000fd5b7f4e487b7100000000000000000000000000000000000000000000000000000000600052602260045260246000fd5b600060028204905060018216806200021357607f821691505b602082108103620002295762000228620001cb565b5b50919050565b60008190508160005260206000209050919050565b60006020601f8301049050919050565b600082821b905092915050565b600060088302620002937fffffffffffffffffffffffffffffffffffffffffffffffffffffffffffffffff8262000254565b6200029f868362000254565b95508019841693508086168417925050509392505050565b6000819050919050565b6000819050919050565b6000620002ec620002e6620002e084620002b7565b620002c1565b620002b7565b9050919050565b6000819050919050565b6200030883620002cb565b620003206200031782620002f3565b84845462000261565b825550505050565b600090565b6200033762000328565b62000344818484620002fd565b505050565b5b818110156200036c57620003606000826200032d565b6001810190506200034a565b5050565b601f821115620003bb5762000385816200022f565b620003908462000244565b81016020851015620003a0578190505b620003b8620003af8562000244565b83018262000349565b50505b505050565b600082821c905092915050565b6000620003e060001984600802620003c0565b1980831691505092915050565b6000620003fb8383620003cd565b9150826002028217905092915050565b620004168262000191565b67ffffffffffffffff8111156200043257620004316200019c565b5b6200043e8254620001fa565b6200044b82828562000370565b600060209050601f8311600181146200048357600084156200046e578287015190505b6200047a8582620003ed565b865550620004ea565b601f19841662000493866200022f565b60005b82811015620004bd5784890151825560018201915060208501945060208101905062000496565b86831015620004dd5784890151620004d9601f891682620003cd565b8355505b6001600288020188555050505b505050505050565b61584180620005026000396000f3fe608060405234801561001057600080fd5b50600436106100f55760003560e01c80638ad4553111610097578063ddba07a411610066578063ddba07a414610298578063e335471c146102b6578063e7216318146102d2578063fe2f416214610302576100f5565b80638ad455311461021257806394a8ae2b14610242578063b53305dc1461025e578063cbc373311461027c576100f5565b806332421cd9116100d357806332421cd9146101785780634a303ef214610196578063615ab611146101b25780636d6ab0c0146101e2576100f5565b80630883c675146100fa5780631ec77de21461012a57806322e9dfdb14610148575b600080fd5b610114600480360381019061010f91906130a0565b61031e565b6040516101219190613275565b60405180910390f35b6101326103a1565b60405161013f9190613413565b60405180910390f35b610162600480360381019061015d91906130a0565b6109d0565b60405161016f9190613534565b60405180910390f35b610180610be5565b60405161018d91906136af565b60405180910390f35b6101b060048036038101906101ab9190613806565b610e64565b005b6101cc60048036038101906101c79190613862565b61105e565b6040516101d991906138ba565b60405180910390f35b6101fc60048036038101906101f79190613862565b61116e565b604051610209919061396c565b60405180910390f35b61022c600480360381019061022791906130a0565b61145f565b60405161023991906138ba565b60405180910390f35b61025c60048036038101906102579190613862565b6114b8565b005b610266611b03565b6040516102739190613a8d565b60405180910390f35b61029660048036038101906102919190613adb565b611c4a565b005b6102a0612170565b6040516102ad9190613c49565b60405180910390f35b6102d060048036038101906102cb9190613c6b565b6122b7565b005b6102ec60048036038101906102e791906130a0565b612dc1565b6040516102f991906138ba565b60405180910390f35b61031c60048036038101906103179190613862565b612e1a565b005b606060008290508073ffffffffffffffffffffffffffffffffffffffff1663909747956040518163ffffffff1660e01b8152600401600060405180830381865afa158015610370573d6000803e3d6000fd5b505050506040513d6000823e3d601f19601f820116820180604052508101906103999190613ea3565b915050919050565b60606000805b6009805490508110156104695760086000600983815481106103cc576103cb613eec565b5b9060005260206000200160009054906101000a900473ffffffffffffffffffffffffffffffffffffffff1673ffffffffffffffffffffffffffffffffffffffff1673ffffffffffffffffffffffffffffffffffffffff16815260200190815260200160002060020160009054906101000a900460ff161561045657818061045290613f4a565b9250505b808061046190613f4a565b9150506103a7565b5060008167ffffffffffffffff811115610486576104856136db565b5b6040519080825280602002602001820160405280156104bf57816020015b6104ac612f87565b8152602001906001900390816104a45790505b5090506000805b6009805490508110156109c65760086000600983815481106104eb576104ea613eec565b5b9060005260206000200160009054906101000a900473ffffffffffffffffffffffffffffffffffffffff1673ffffffffffffffffffffffffffffffffffffffff1673ffffffffffffffffffffffffffffffffffffffff16815260200190815260200160002060020160009054906101000a900460ff16156109b3576040518060c001604052806009838154811061058557610584613eec565b5b9060005260206000200160009054906101000a900473ffffffffffffffffffffffffffffffffffffffff1673ffffffffffffffffffffffffffffffffffffffff16815260200160086000600985815481106105e3576105e2613eec565b5b9060005260206000200160009054906101000a900473ffffffffffffffffffffffffffffffffffffffff1673ffffffffffffffffffffffffffffffffffffffff1673ffffffffffffffffffffffffffffffffffffffff168152602001908152602001600020600701805461065690613fc1565b80601f016020809104026020016040519081016040528092919081815260200182805461068290613fc1565b80156106cf5780601f106106a4576101008083540402835291602001916106cf565b820191906000526020600020905b8154815290600101906020018083116106b257829003601f168201915b5050505050815260200160086000600985815481106106f1576106f0613eec565b5b9060005260206000200160009054906101000a900473ffffffffffffffffffffffffffffffffffffffff1673ffffffffffffffffffffffffffffffffffffffff1673ffffffffffffffffffffffffffffffffffffffff168152602001908152602001600020600301805461076490613fc1565b80601f016020809104026020016040519081016040528092919081815260200182805461079090613fc1565b80156107dd5780601f106107b2576101008083540402835291602001916107dd565b820191906000526020600020905b8154815290600101906020018083116107c057829003601f168201915b5050505050815260200160086000600985815481106107ff576107fe613eec565b5b9060005260206000200160009054906101000a900473ffffffffffffffffffffffffffffffffffffffff1673ffffffffffffffffffffffffffffffffffffffff1673ffffffffffffffffffffffffffffffffffffffff168152602001908152602001600020600401548152602001600860006009858154811061088557610884613eec565b5b9060005260206000200160009054906101000a900473ffffffffffffffffffffffffffffffffffffffff1673ffffffffffffffffffffffffffffffffffffffff1673ffffffffffffffffffffffffffffffffffffffff168152602001908152602001600020600501548152602001600860006009858154811061090b5761090a613eec565b5b9060005260206000200160009054906101000a900473ffffffffffffffffffffffffffffffffffffffff1673ffffffffffffffffffffffffffffffffffffffff1673ffffffffffffffffffffffffffffffffffffffff16815260200190815260200160002060060160009054906101000a900460ff16151581525083838151811061099957610998613eec565b5b602002602001018190525081806109af90613f4a565b9250505b80806109be90613f4a565b9150506104c6565b5081935050505090565b6060600460008373ffffffffffffffffffffffffffffffffffffffff1673ffffffffffffffffffffffffffffffffffffffff16815260200190815260200160002060000160009054906101000a900460ff16610a61576040517f08c379a0000000000000000000000000000000000000000000000000000000008152600401610a589061404f565b60405180910390fd5b600360008373ffffffffffffffffffffffffffffffffffffffff1673ffffffffffffffffffffffffffffffffffffffff168152602001908152602001600020805480602002602001604051908101604052809291908181526020016000905b82821015610bda5783829060005260206000209060020201604051806040016040529081600082018054610af390613fc1565b80601f0160208091040260200160405190810160405280929190818152602001828054610b1f90613fc1565b8015610b6c5780601f10610b4157610100808354040283529160200191610b6c565b820191906000526020600020905b815481529060010190602001808311610b4f57829003601f168201915b505050505081526020016001820160009054906101000a900473ffffffffffffffffffffffffffffffffffffffff1673ffffffffffffffffffffffffffffffffffffffff1673ffffffffffffffffffffffffffffffffffffffff168152505081526020019060010190610ac0565b505050509050919050565b60606001805480602002602001604051908101604052809291908181526020016000905b82821015610e5b57838290600052602060002090600602016040518060c0016040529081600082018054610c3c90613fc1565b80601f0160208091040260200160405190810160405280929190818152602001828054610c6890613fc1565b8015610cb55780601f10610c8a57610100808354040283529160200191610cb5565b820191906000526020600020905b815481529060010190602001808311610c9857829003601f168201915b50505050508152602001600182018054610cce90613fc1565b80601f0160208091040260200160405190810160405280929190818152602001828054610cfa90613fc1565b8015610d475780601f10610d1c57610100808354040283529160200191610d47565b820191906000526020600020905b815481529060010190602001808311610d2a57829003601f168201915b50505050508152602001600282018054610d6090613fc1565b80601f0160208091040260200160405190810160405280929190818152602001828054610d8c90613fc1565b8015610dd95780601f10610dae57610100808354040283529160200191610dd9565b820191906000526020600020905b815481529060010190602001808311610dbc57829003601f168201915b505050505081526020016003820160009054906101000a900473ffffffffffffffffffffffffffffffffffffffff1673ffffffffffffffffffffffffffffffffffffffff1673ffffffffffffffffffffffffffffffffffffffff1681526020016004820154815260200160058201548152505081526020019060010190610c09565b50505050905090565b33610e6e8161145f565b610ead576040517f08c379a0000000000000000000000000000000000000000000000000000000008152600401610ea4906140e1565b60405180910390fd5b600073ffffffffffffffffffffffffffffffffffffffff168273ffffffffffffffffffffffffffffffffffffffff1603610f1c576040517f08c379a0000000000000000000000000000000000000000000000000000000008152600401610f139061414d565b60405180910390fd5b6000829050600073ffffffffffffffffffffffffffffffffffffffff168173ffffffffffffffffffffffffffffffffffffffff1603610f90576040517f08c379a0000000000000000000000000000000000000000000000000000000008152600401610f87906141b9565b60405180910390fd5b82600085604051610fa19190614215565b908152602001604051809103902060006101000a81548173ffffffffffffffffffffffffffffffffffffffff021916908373ffffffffffffffffffffffffffffffffffffffff1602179055508073ffffffffffffffffffffffffffffffffffffffff1663dfe00c51856040518263ffffffff1660e01b81526004016110269190614265565b600060405180830381600087803b15801561104057600080fd5b505af1158015611054573d6000803e3d6000fd5b5050505050505050565b60003361106a81612dc1565b6110a9576040517f08c379a00000000000000000000000000000000000000000000000000000000081526004016110a0906142d3565b60405180910390fd5b600080846040516110ba9190614215565b908152602001604051809103902060009054906101000a900473ffffffffffffffffffffffffffffffffffffffff1690508073ffffffffffffffffffffffffffffffffffffffff166392efc453856040518263ffffffff1660e01b81526004016111249190614265565b602060405180830381865afa158015611141573d6000803e3d6000fd5b505050506040513d601f19601f820116820180604052508101906111659190614308565b92505050919050565b611176612fd5565b6002826040516111869190614215565b908152602001604051809103902060000160009054906101000a900460ff161561141f5760016002836040516111bc9190614215565b908152602001604051809103902060010154815481106111df576111de613eec565b5b90600052602060002090600602016040518060c001604052908160008201805461120890613fc1565b80601f016020809104026020016040519081016040528092919081815260200182805461123490613fc1565b80156112815780601f1061125657610100808354040283529160200191611281565b820191906000526020600020905b81548152906001019060200180831161126457829003601f168201915b5050505050815260200160018201805461129a90613fc1565b80601f01602080910402602001604051908101604052809291908181526020018280546112c690613fc1565b80156113135780601f106112e857610100808354040283529160200191611313565b820191906000526020600020905b8154815290600101906020018083116112f657829003601f168201915b5050505050815260200160028201805461132c90613fc1565b80601f016020809104026020016040519081016040528092919081815260200182805461135890613fc1565b80156113a55780601f1061137a576101008083540402835291602001916113a5565b820191906000526020600020905b81548152906001019060200180831161138857829003601f168201915b505050505081526020016003820160009054906101000a900473ffffffffffffffffffffffffffffffffffffffff1673ffffffffffffffffffffffffffffffffffffffff1673ffffffffffffffffffffffffffffffffffffffff16815260200160048201548152602001600582015481525050905061145a565b6040517f08c379a000000000000000000000000000000000000000000000000000000000815260040161145190614381565b60405180910390fd5b919050565b6000600460008373ffffffffffffffffffffffffffffffffffffffff1673ffffffffffffffffffffffffffffffffffffffff16815260200190815260200160002060000160009054906101000a900460ff169050919050565b806000826040516114c99190614215565b908152602001604051809103902060009054906101000a900473ffffffffffffffffffffffffffffffffffffffff166115018261105e565b611540576040517f08c379a0000000000000000000000000000000000000000000000000000000008152600401611537906143ed565b60405180910390fd5b6002836040516115509190614215565b908152602001604051809103902060000160009054906101000a900460ff16156115af576040517f08c379a00000000000000000000000000000000000000000000000000000000081526004016115a69061447f565b60405180910390fd5b600080846040516115c09190614215565b908152602001604051809103902060009054906101000a900473ffffffffffffffffffffffffffffffffffffffff16905060016002856040516116039190614215565b908152602001604051809103902060000160006101000a81548160ff021916908315150217905550600081905060016040518060c001604052808781526020016007600460008673ffffffffffffffffffffffffffffffffffffffff1663fe0174bd6040518163ffffffff1660e01b8152600401602060405180830381865afa158015611694573d6000803e3d6000fd5b505050506040513d601f19601f820116820180604052508101906116b891906144b4565b73ffffffffffffffffffffffffffffffffffffffff1673ffffffffffffffffffffffffffffffffffffffff168152602001908152602001600020600101548154811061170757611706613eec565b5b9060005260206000209060020201600001805461172390613fc1565b80601f016020809104026020016040519081016040528092919081815260200182805461174f90613fc1565b801561179c5780601f106117715761010080835404028352916020019161179c565b820191906000526020600020905b81548152906001019060200180831161177f57829003601f168201915b505050505081526020016006600560003373ffffffffffffffffffffffffffffffffffffffff1673ffffffffffffffffffffffffffffffffffffffff16815260200190815260200160002060010154815481106117fc576117fb613eec565b5b9060005260206000209060020201600001805461181890613fc1565b80601f016020809104026020016040519081016040528092919081815260200182805461184490613fc1565b80156118915780601f1061186657610100808354040283529160200191611891565b820191906000526020600020905b81548152906001019060200180831161187457829003601f168201915b505050505081526020016006600560003373ffffffffffffffffffffffffffffffffffffffff1673ffffffffffffffffffffffffffffffffffffffff16815260200190815260200160002060010154815481106118f1576118f0613eec565b5b906000526020600020906002020160010160009054906101000a900473ffffffffffffffffffffffffffffffffffffffff1673ffffffffffffffffffffffffffffffffffffffff1681526020018373ffffffffffffffffffffffffffffffffffffffff1663a5c3bcea896040518263ffffffff1660e01b81526004016119779190614265565b602060405180830381865afa158015611994573d6000803e3d6000fd5b505050506040513d601f19601f820116820180604052508101906119b891906144e1565b815260200142815250908060018154018082558091505060019003906000526020600020906006020160009091909190915060008201518160000190816119ff91906146ba565b506020820151816001019081611a1591906146ba565b506040820151816002019081611a2b91906146ba565b5060608201518160030160006101000a81548173ffffffffffffffffffffffffffffffffffffffff021916908373ffffffffffffffffffffffffffffffffffffffff1602179055506080820151816004015560a082015181600501555050604051806040016040528060011515815260200160018080549050611aae919061478c565b815250600286604051611ac19190614215565b908152602001604051809103902060008201518160000160006101000a81548160ff021916908315150217905550602082015181600101559050505050505050565b60606006805480602002602001604051908101604052809291908181526020016000905b82821015611c415783829060005260206000209060020201604051806040016040529081600082018054611b5a90613fc1565b80601f0160208091040260200160405190810160405280929190818152602001828054611b8690613fc1565b8015611bd35780601f10611ba857610100808354040283529160200191611bd3565b820191906000526020600020905b815481529060010190602001808311611bb657829003601f168201915b505050505081526020016001820160009054906101000a900473ffffffffffffffffffffffffffffffffffffffff1673ffffffffffffffffffffffffffffffffffffffff1673ffffffffffffffffffffffffffffffffffffffff168152505081526020019060010190611b27565b50505050905090565b33611c548161145f565b611c93576040517f08c379a0000000000000000000000000000000000000000000000000000000008152600401611c8a906140e1565b60405180910390fd5b600460008573ffffffffffffffffffffffffffffffffffffffff1673ffffffffffffffffffffffffffffffffffffffff16815260200190815260200160002060000160009054906101000a900460ff16158015611d3d5750600560008573ffffffffffffffffffffffffffffffffffffffff1673ffffffffffffffffffffffffffffffffffffffff16815260200190815260200160002060000160009054906101000a900460ff16155b611d7c576040517f08c379a0000000000000000000000000000000000000000000000000000000008152600401611d739061480c565b60405180910390fd5b600860008573ffffffffffffffffffffffffffffffffffffffff1673ffffffffffffffffffffffffffffffffffffffff16815260200190815260200160002060020160009054906101000a900460ff1615611e0c576040517f08c379a0000000000000000000000000000000000000000000000000000000008152600401611e039061489e565b60405180910390fd5b600860008573ffffffffffffffffffffffffffffffffffffffff1673ffffffffffffffffffffffffffffffffffffffff16815260200190815260200160002060000160009054906101000a900460ff16611f1f576009849080600181540180825580915050600190039060005260206000200160009091909190916101000a81548173ffffffffffffffffffffffffffffffffffffffff021916908373ffffffffffffffffffffffffffffffffffffffff1602179055506001600860008673ffffffffffffffffffffffffffffffffffffffff1673ffffffffffffffffffffffffffffffffffffffff16815260200190815260200160002060000160006101000a81548160ff0219169083151502179055505b6001600860008673ffffffffffffffffffffffffffffffffffffffff1673ffffffffffffffffffffffffffffffffffffffff16815260200190815260200160002060020160006101000a81548160ff0219169083151502179055506007600460003373ffffffffffffffffffffffffffffffffffffffff1673ffffffffffffffffffffffffffffffffffffffff1681526020019081526020016000206001015481548110611fd057611fcf613eec565b5b9060005260206000209060020201600001600860008673ffffffffffffffffffffffffffffffffffffffff1673ffffffffffffffffffffffffffffffffffffffff168152602001908152602001600020600701908161202f91906148e9565b5082600860008673ffffffffffffffffffffffffffffffffffffffff1673ffffffffffffffffffffffffffffffffffffffff168152602001908152602001600020600301908161207f91906146ba565b5081600860008673ffffffffffffffffffffffffffffffffffffffff1673ffffffffffffffffffffffffffffffffffffffff16815260200190815260200160002060060160006101000a81548160ff0219169083151502179055506000600860008673ffffffffffffffffffffffffffffffffffffffff1673ffffffffffffffffffffffffffffffffffffffff168152602001908152602001600020600401819055506000600860008673ffffffffffffffffffffffffffffffffffffffff1673ffffffffffffffffffffffffffffffffffffffff1681526020019081526020016000206005018190555050505050565b60606007805480602002602001604051908101604052809291908181526020016000905b828210156122ae57838290600052602060002090600202016040518060400160405290816000820180546121c790613fc1565b80601f01602080910402602001604051908101604052809291908181526020018280546121f390613fc1565b80156122405780601f1061221557610100808354040283529160200191612240565b820191906000526020600020905b81548152906001019060200180831161222357829003601f168201915b505050505081526020016001820160009054906101000a900473ffffffffffffffffffffffffffffffffffffffff1673ffffffffffffffffffffffffffffffffffffffff1673ffffffffffffffffffffffffffffffffffffffff168152505081526020019060010190612194565b50505050905090565b336122c18161145f565b612300576040517f08c379a00000000000000000000000000000000000000000000000000000000081526004016122f7906140e1565b60405180910390fd5b600860008473ffffffffffffffffffffffffffffffffffffffff1673ffffffffffffffffffffffffffffffffffffffff16815260200190815260200160002060020160009054906101000a900460ff1661238f576040517f08c379a000000000000000000000000000000000000000000000000000000000815260040161238690614a1d565b60405180910390fd5b600860008473ffffffffffffffffffffffffffffffffffffffff1673ffffffffffffffffffffffffffffffffffffffff16815260200190815260200160002060010160003373ffffffffffffffffffffffffffffffffffffffff1673ffffffffffffffffffffffffffffffffffffffff16815260200190815260200160002060009054906101000a900460ff161561245c576040517f08c379a000000000000000000000000000000000000000000000000000000000815260040161245390614a89565b60405180910390fd5b81156124c1576001600860008573ffffffffffffffffffffffffffffffffffffffff1673ffffffffffffffffffffffffffffffffffffffff16815260200190815260200160002060040160008282546124b59190614aa9565b9250508190555061251c565b6001600860008573ffffffffffffffffffffffffffffffffffffffff1673ffffffffffffffffffffffffffffffffffffffff16815260200190815260200160002060050160008282546125149190614aa9565b925050819055505b6001600860008573ffffffffffffffffffffffffffffffffffffffff1673ffffffffffffffffffffffffffffffffffffffff16815260200190815260200160002060010160003373ffffffffffffffffffffffffffffffffffffffff1673ffffffffffffffffffffffffffffffffffffffff16815260200190815260200160002060006101000a81548160ff02191690831515021790555060016002600a546125c59190614b0c565b6125cf9190614aa9565b600860008573ffffffffffffffffffffffffffffffffffffffff1673ffffffffffffffffffffffffffffffffffffffff1681526020019081526020016000206004015410612bfb57600860008473ffffffffffffffffffffffffffffffffffffffff1673ffffffffffffffffffffffffffffffffffffffff16815260200190815260200160002060060160009054906101000a900460ff16156128855760076040518060400160405280600860008773ffffffffffffffffffffffffffffffffffffffff1673ffffffffffffffffffffffffffffffffffffffff16815260200190815260200160002060030180546126c690613fc1565b80601f01602080910402602001604051908101604052809291908181526020018280546126f290613fc1565b801561273f5780601f106127145761010080835404028352916020019161273f565b820191906000526020600020905b81548152906001019060200180831161272257829003601f168201915b505050505081526020018573ffffffffffffffffffffffffffffffffffffffff16815250908060018154018082558091505060019003906000526020600020906002020160009091909190915060008201518160000190816127a191906146ba565b5060208201518160010160006101000a81548173ffffffffffffffffffffffffffffffffffffffff021916908373ffffffffffffffffffffffffffffffffffffffff160217905550505060405180604001604052806001151581526020016001600780549050612811919061478c565b815250600460008573ffffffffffffffffffffffffffffffffffffffff1673ffffffffffffffffffffffffffffffffffffffff16815260200190815260200160002060008201518160000160006101000a81548160ff02191690831515021790555060208201518160010155905050612a9a565b60066040518060400160405280600860008773ffffffffffffffffffffffffffffffffffffffff1673ffffffffffffffffffffffffffffffffffffffff16815260200190815260200160002060030180546128df90613fc1565b80601f016020809104026020016040519081016040528092919081815260200182805461290b90613fc1565b80156129585780601f1061292d57610100808354040283529160200191612958565b820191906000526020600020905b81548152906001019060200180831161293b57829003601f168201915b505050505081526020018573ffffffffffffffffffffffffffffffffffffffff16815250908060018154018082558091505060019003906000526020600020906002020160009091909190915060008201518160000190816129ba91906146ba565b5060208201518160010160006101000a81548173ffffffffffffffffffffffffffffffffffffffff021916908373ffffffffffffffffffffffffffffffffffffffff160217905550505060405180604001604052806001151581526020016001600680549050612a2a919061478c565b815250600560008573ffffffffffffffffffffffffffffffffffffffff1673ffffffffffffffffffffffffffffffffffffffff16815260200190815260200160002060008201518160000160006101000a81548160ff021916908315150217905550602082015181600101559050505b6000600860008573ffffffffffffffffffffffffffffffffffffffff1673ffffffffffffffffffffffffffffffffffffffff16815260200190815260200160002060020160006101000a81548160ff02191690831515021790555060005b600780549050811015612bf5576000600860008673ffffffffffffffffffffffffffffffffffffffff1673ffffffffffffffffffffffffffffffffffffffff168152602001908152602001600020600101600060078481548110612b5f57612b5e613eec565b5b906000526020600020906002020160010160009054906101000a900473ffffffffffffffffffffffffffffffffffffffff1673ffffffffffffffffffffffffffffffffffffffff1673ffffffffffffffffffffffffffffffffffffffff16815260200190815260200160002060006101000a81548160ff0219169083151502179055508080612bed90613f4a565b915050612af8565b50612dbc565b60016002600a54612c0c9190614b0c565b612c169190614aa9565b600860008573ffffffffffffffffffffffffffffffffffffffff1673ffffffffffffffffffffffffffffffffffffffff1681526020019081526020016000206005015410612dbb576000600860008573ffffffffffffffffffffffffffffffffffffffff1673ffffffffffffffffffffffffffffffffffffffff16815260200190815260200160002060020160006101000a81548160ff02191690831515021790555060005b600780549050811015612db9576000600860008673ffffffffffffffffffffffffffffffffffffffff1673ffffffffffffffffffffffffffffffffffffffff168152602001908152602001600020600101600060078481548110612d2357612d22613eec565b5b906000526020600020906002020160010160009054906101000a900473ffffffffffffffffffffffffffffffffffffffff1673ffffffffffffffffffffffffffffffffffffffff1673ffffffffffffffffffffffffffffffffffffffff16815260200190815260200160002060006101000a81548160ff0219169083151502179055508080612db190613f4a565b915050612cbc565b505b5b505050565b6000600560008373ffffffffffffffffffffffffffffffffffffffff1673ffffffffffffffffffffffffffffffffffffffff16815260200190815260200160002060000160009054906101000a900460ff169050919050565b33612e248161145f565b612e63576040517f08c379a0000000000000000000000000000000000000000000000000000000008152600401612e5a906140e1565b60405180910390fd5b6000604051612e7190613021565b604051809103906000f080158015612e8d573d6000803e3d6000fd5b509050600360003373ffffffffffffffffffffffffffffffffffffffff1673ffffffffffffffffffffffffffffffffffffffff16815260200190815260200160002060405180604001604052808581526020018373ffffffffffffffffffffffffffffffffffffffff1681525090806001815401808255809150506001900390600052602060002090600202016000909190919091506000820151816000019081612f3891906146ba565b5060208201518160010160006101000a81548173ffffffffffffffffffffffffffffffffffffffff021916908373ffffffffffffffffffffffffffffffffffffffff1602179055505050505050565b6040518060c00160405280600073ffffffffffffffffffffffffffffffffffffffff168152602001606081526020016060815260200160008152602001600081526020016000151581525090565b6040518060c00160405280606081526020016060815260200160608152602001600073ffffffffffffffffffffffffffffffffffffffff16815260200160008152602001600081525090565b610cce80614b3e83390190565b6000604051905090565b600080fd5b600080fd5b600073ffffffffffffffffffffffffffffffffffffffff82169050919050565b600061306d82613042565b9050919050565b61307d81613062565b811461308857600080fd5b50565b60008135905061309a81613074565b92915050565b6000602082840312156130b6576130b5613038565b5b60006130c48482850161308b565b91505092915050565b600081519050919050565b600082825260208201905092915050565b6000819050602082019050919050565b600081519050919050565b600082825260208201905092915050565b60005b83811015613133578082015181840152602081019050613118565b60008484015250505050565b6000601f19601f8301169050919050565b600061315b826130f9565b6131658185613104565b9350613175818560208601613115565b61317e8161313f565b840191505092915050565b6000819050919050565b61319c81613189565b82525050565b600060408301600083015184820360008601526131bf8282613150565b91505060208301516131d46020860182613193565b508091505092915050565b60006131eb83836131a2565b905092915050565b6000602082019050919050565b600061320b826130cd565b61321581856130d8565b935083602082028501613227856130e9565b8060005b85811015613263578484038952815161324485826131df565b945061324f836131f3565b925060208a0199505060018101905061322b565b50829750879550505050505092915050565b6000602082019050818103600083015261328f8184613200565b905092915050565b600081519050919050565b600082825260208201905092915050565b6000819050602082019050919050565b6132cc81613062565b82525050565b60008115159050919050565b6132e7816132d2565b82525050565b600060c08301600083015161330560008601826132c3565b506020830151848203602086015261331d8282613150565b915050604083015184820360408601526133378282613150565b915050606083015161334c6060860182613193565b50608083015161335f6080860182613193565b5060a083015161337260a08601826132de565b508091505092915050565b600061338983836132ed565b905092915050565b6000602082019050919050565b60006133a982613297565b6133b381856132a2565b9350836020820285016133c5856132b3565b8060005b8581101561340157848403895281516133e2858261337d565b94506133ed83613391565b925060208a019950506001810190506133c9565b50829750879550505050505092915050565b6000602082019050818103600083015261342d818461339e565b905092915050565b600081519050919050565b600082825260208201905092915050565b6000819050602082019050919050565b6000604083016000830151848203600086015261347e8282613150565b915050602083015161349360208601826132c3565b508091505092915050565b60006134aa8383613461565b905092915050565b6000602082019050919050565b60006134ca82613435565b6134d48185613440565b9350836020820285016134e685613451565b8060005b858110156135225784840389528151613503858261349e565b945061350e836134b2565b925060208a019950506001810190506134ea565b50829750879550505050505092915050565b6000602082019050818103600083015261354e81846134bf565b905092915050565b600081519050919050565b600082825260208201905092915050565b6000819050602082019050919050565b600060c083016000830151848203600086015261359f8282613150565b915050602083015184820360208601526135b98282613150565b915050604083015184820360408601526135d38282613150565b91505060608301516135e860608601826132c3565b5060808301516135fb6080860182613193565b5060a083015161360e60a0860182613193565b508091505092915050565b60006136258383613582565b905092915050565b6000602082019050919050565b600061364582613556565b61364f8185613561565b93508360208202850161366185613572565b8060005b8581101561369d578484038952815161367e8582613619565b94506136898361362d565b925060208a01995050600181019050613665565b50829750879550505050505092915050565b600060208201905081810360008301526136c9818461363a565b905092915050565b600080fd5b600080fd5b7f4e487b7100000000000000000000000000000000000000000000000000000000600052604160045260246000fd5b6137138261313f565b810181811067ffffffffffffffff82111715613732576137316136db565b5b80604052505050565b600061374561302e565b9050613751828261370a565b919050565b600067ffffffffffffffff821115613771576137706136db565b5b61377a8261313f565b9050602081019050919050565b82818337600083830152505050565b60006137a96137a484613756565b61373b565b9050828152602081018484840111156137c5576137c46136d6565b5b6137d0848285613787565b509392505050565b600082601f8301126137ed576137ec6136d1565b5b81356137fd848260208601613796565b91505092915050565b6000806040838503121561381d5761381c613038565b5b600083013567ffffffffffffffff81111561383b5761383a61303d565b5b613847858286016137d8565b92505060206138588582860161308b565b9150509250929050565b60006020828403121561387857613877613038565b5b600082013567ffffffffffffffff8111156138965761389561303d565b5b6138a2848285016137d8565b91505092915050565b6138b4816132d2565b82525050565b60006020820190506138cf60008301846138ab565b92915050565b600060c08301600083015184820360008601526138f28282613150565b9150506020830151848203602086015261390c8282613150565b915050604083015184820360408601526139268282613150565b915050606083015161393b60608601826132c3565b50608083015161394e6080860182613193565b5060a083015161396160a0860182613193565b508091505092915050565b6000602082019050818103600083015261398681846138d5565b905092915050565b600081519050919050565b600082825260208201905092915050565b6000819050602082019050919050565b600060408301600083015184820360008601526139d78282613150565b91505060208301516139ec60208601826132c3565b508091505092915050565b6000613a0383836139ba565b905092915050565b6000602082019050919050565b6000613a238261398e565b613a2d8185613999565b935083602082028501613a3f856139aa565b8060005b85811015613a7b5784840389528151613a5c85826139f7565b9450613a6783613a0b565b925060208a01995050600181019050613a43565b50829750879550505050505092915050565b60006020820190508181036000830152613aa78184613a18565b905092915050565b613ab8816132d2565b8114613ac357600080fd5b50565b600081359050613ad581613aaf565b92915050565b600080600060608486031215613af457613af3613038565b5b6000613b028682870161308b565b935050602084013567ffffffffffffffff811115613b2357613b2261303d565b5b613b2f868287016137d8565b9250506040613b4086828701613ac6565b9150509250925092565b600081519050919050565b600082825260208201905092915050565b6000819050602082019050919050565b60006040830160008301518482036000860152613b938282613150565b9150506020830151613ba860208601826132c3565b508091505092915050565b6000613bbf8383613b76565b905092915050565b6000602082019050919050565b6000613bdf82613b4a565b613be98185613b55565b935083602082028501613bfb85613b66565b8060005b85811015613c375784840389528151613c188582613bb3565b9450613c2383613bc7565b925060208a01995050600181019050613bff565b50829750879550505050505092915050565b60006020820190508181036000830152613c638184613bd4565b905092915050565b60008060408385031215613c8257613c81613038565b5b6000613c908582860161308b565b9250506020613ca185828601613ac6565b9150509250929050565b600067ffffffffffffffff821115613cc657613cc56136db565b5b602082029050602081019050919050565b600080fd5b600080fd5b600080fd5b6000613cf9613cf484613756565b61373b565b905082815260208101848484011115613d1557613d146136d6565b5b613d20848285613115565b509392505050565b600082601f830112613d3d57613d3c6136d1565b5b8151613d4d848260208601613ce6565b91505092915050565b613d5f81613189565b8114613d6a57600080fd5b50565b600081519050613d7c81613d56565b92915050565b600060408284031215613d9857613d97613cdc565b5b613da2604061373b565b9050600082015167ffffffffffffffff811115613dc257613dc1613ce1565b5b613dce84828501613d28565b6000830152506020613de284828501613d6d565b60208301525092915050565b6000613e01613dfc84613cab565b61373b565b90508083825260208201905060208402830185811115613e2457613e23613cd7565b5b835b81811015613e6b57805167ffffffffffffffff811115613e4957613e486136d1565b5b808601613e568982613d82565b85526020850194505050602081019050613e26565b5050509392505050565b600082601f830112613e8a57613e896136d1565b5b8151613e9a848260208601613dee565b91505092915050565b600060208284031215613eb957613eb8613038565b5b600082015167ffffffffffffffff811115613ed757613ed661303d565b5b613ee384828501613e75565b91505092915050565b7f4e487b7100000000000000000000000000000000000000000000000000000000600052603260045260246000fd5b7f4e487b7100000000000000000000000000000000000000000000000000000000600052601160045260246000fd5b6000613f5582613189565b91507fffffffffffffffffffffffffffffffffffffffffffffffffffffffffffffffff8203613f8757613f86613f1b565b5b600182019050919050565b7f4e487b7100000000000000000000000000000000000000000000000000000000600052602260045260246000fd5b60006002820490506001821680613fd957607f821691505b602082108103613fec57613feb613f92565b5b50919050565b600082825260208201905092915050565b7f57616c6c6574206164647265737320646f6573206e6f74206578697374000000600082015250565b6000614039601d83613ff2565b915061404482614003565b602082019050919050565b600060208201905081810360008301526140688161402c565b9050919050565b7f57616c6c65742061646472657373206e6f742061206d616e756661637475726560008201527f7200000000000000000000000000000000000000000000000000000000000000602082015250565b60006140cb602183613ff2565b91506140d68261406f565b604082019050919050565b600060208201905081810360008301526140fa816140be565b9050919050565b7f496e76616c696420636f6e747261637420616464726573730000000000000000600082015250565b6000614137601883613ff2565b915061414282614101565b602082019050919050565b600060208201905081810360008301526141668161412a565b9050919050565b7f496e76616c696420636f6e747261637420696e7374616e636500000000000000600082015250565b60006141a3601983613ff2565b91506141ae8261416d565b602082019050919050565b600060208201905081810360008301526141d281614196565b9050919050565b600081905092915050565b60006141ef826130f9565b6141f981856141d9565b9350614209818560208601613115565b80840191505092915050565b600061422182846141e4565b915081905092915050565b6000614237826130f9565b6142418185613ff2565b9350614251818560208601613115565b61425a8161313f565b840191505092915050565b6000602082019050818103600083015261427f818461422c565b905092915050565b7f57616c6c65742061646472657373206e6f74206120737570706c696572000000600082015250565b60006142bd601d83613ff2565b91506142c882614287565b602082019050919050565b600060208201905081810360008301526142ec816142b0565b9050919050565b60008151905061430281613aaf565b92915050565b60006020828403121561431e5761431d613038565b5b600061432c848285016142f3565b91505092915050565b7f50726f64756374206e6f7420666f756e64000000000000000000000000000000600082015250565b600061436b601183613ff2565b915061437682614335565b602082019050919050565b6000602082019050818103600083015261439a8161435e565b9050919050565b7f50726f6475637420697320696e76616c69640000000000000000000000000000600082015250565b60006143d7601283613ff2565b91506143e2826143a1565b602082019050919050565b60006020820190508181036000830152614406816143ca565b9050919050565b7f50726f6475637420616c7265616479207265616368656420746f20612073757060008201527f706c696572000000000000000000000000000000000000000000000000000000602082015250565b6000614469602583613ff2565b91506144748261440d565b604082019050919050565b600060208201905081810360008301526144988161445c565b9050919050565b6000815190506144ae81613074565b92915050565b6000602082840312156144ca576144c9613038565b5b60006144d88482850161449f565b91505092915050565b6000602082840312156144f7576144f6613038565b5b600061450584828501613d6d565b91505092915050565b60008190508160005260206000209050919050565b60006020601f8301049050919050565b600082821b905092915050565b6000600883026145707fffffffffffffffffffffffffffffffffffffffffffffffffffffffffffffffff82614533565b61457a8683614533565b95508019841693508086168417925050509392505050565b6000819050919050565b60006145b76145b26145ad84613189565b614592565b613189565b9050919050565b6000819050919050565b6145d18361459c565b6145e56145dd826145be565b848454614540565b825550505050565b600090565b6145fa6145ed565b6146058184846145c8565b505050565b5b818110156146295761461e6000826145f2565b60018101905061460b565b5050565b601f82111561466e5761463f8161450e565b61464884614523565b81016020851015614657578190505b61466b61466385614523565b83018261460a565b50505b505050565b600082821c905092915050565b600061469160001984600802614673565b1980831691505092915050565b60006146aa8383614680565b9150826002028217905092915050565b6146c3826130f9565b67ffffffffffffffff8111156146dc576146db6136db565b5b6146e68254613fc1565b6146f182828561462d565b600060209050601f8311600181146147245760008415614712578287015190505b61471c858261469e565b865550614784565b601f1984166147328661450e565b60005b8281101561475a57848901518255600182019150602085019450602081019050614735565b868310156147775784890151614773601f891682614680565b8355505b6001600288020188555050505b505050505050565b600061479782613189565b91506147a283613189565b92508282039050818111156147ba576147b9613f1b565b5b92915050565b7f4d656d62657220616c7265616479206120706172746e65720000000000000000600082015250565b60006147f6601883613ff2565b9150614801826147c0565b602082019050919050565b60006020820190508181036000830152614825816147e9565b9050919050565b7f4d656d62657220616c72656164792070726573656e7420666f7220766f74696e60008201527f6700000000000000000000000000000000000000000000000000000000000000602082015250565b6000614888602183613ff2565b91506148938261482c565b604082019050919050565b600060208201905081810360008301526148b78161487b565b9050919050565b6000815490506148cd81613fc1565b9050919050565b60008190508160005260206000209050919050565b8181036148f75750506149cf565b614900826148be565b67ffffffffffffffff811115614919576149186136db565b5b6149238254613fc1565b61492e82828561462d565b6000601f83116001811461495d576000841561494b578287015490505b614955858261469e565b8655506149c8565b601f19841661496b876148d4565b96506149768661450e565b60005b8281101561499e57848901548255600182019150600185019450602081019050614979565b868310156149bb57848901546149b7601f891682614680565b8355505b6001600288020188555050505b5050505050505b565b7f4d656d626572206973206e6f742070617274206f6620766f74696e6700000000600082015250565b6000614a07601c83613ff2565b9150614a12826149d1565b602082019050919050565b60006020820190508181036000830152614a36816149fa565b9050919050565b7f596f7520616c726561647920766f74656420746f206e6f6d696e617465000000600082015250565b6000614a73601d83613ff2565b9150614a7e82614a3d565b602082019050919050565b60006020820190508181036000830152614aa281614a66565b9050919050565b6000614ab482613189565b9150614abf83613189565b9250828201905080821115614ad757614ad6613f1b565b5b92915050565b7f4e487b7100000000000000000000000000000000000000000000000000000000600052601260045260246000fd5b6000614b1782613189565b9150614b2283613189565b925082614b3257614b31614add565b5b82820490509291505056fe608060405234801561001057600080fd5b5033600260006101000a81548173ffffffffffffffffffffffffffffffffffffffff021916908373ffffffffffffffffffffffffffffffffffffffff160217905550610c6d806100616000396000f3fe608060405234801561001057600080fd5b50600436106100625760003560e01c80638da5cb5b14610067578063909747951461008557806392efc453146100a3578063a5c3bcea146100d3578063dfe00c5114610103578063fe0174bd1461011f575b600080fd5b61006f61013d565b60405161007c919061048c565b60405180910390f35b61008d610163565b60405161009a919061064f565b60405180910390f35b6100bd60048036038101906100b891906107ba565b61025e565b6040516100ca919061081e565b60405180910390f35b6100ed60048036038101906100e891906107ba565b610296565b6040516100fa9190610848565b60405180910390f35b61011d600480360381019061011891906107ba565b6102c1565b005b610127610421565b604051610134919061048c565b60405180910390f35b600260009054906101000a900473ffffffffffffffffffffffffffffffffffffffff1681565b60606000805480602002602001604051908101604052809291908181526020016000905b8282101561025557838290600052602060002090600202016040518060400160405290816000820180546101ba90610892565b80601f01602080910402602001604051908101604052809291908181526020018280546101e690610892565b80156102335780601f1061020857610100808354040283529160200191610233565b820191906000526020600020905b81548152906001019060200180831161021657829003601f168201915b5050505050815260200160018201548152505081526020019060010190610187565b50505050905090565b600060018260405161027091906108ff565b908152602001604051809103902060000160009054906101000a900460ff169050919050565b60006001826040516102a891906108ff565b9081526020016040518091039020600101549050919050565b33600260009054906101000a900473ffffffffffffffffffffffffffffffffffffffff1673ffffffffffffffffffffffffffffffffffffffff168173ffffffffffffffffffffffffffffffffffffffff1614610352576040517f08c379a000000000000000000000000000000000000000000000000000000000815260040161034990610999565b60405180910390fd5b60004290506000604051806040016040528085815260200183815250908060018154018082558091505060019003906000526020600020906002020160009091909190915060008201518160000190816103ac9190610b65565b506020820151816001015550506040518060400160405280600115158152602001828152506001846040516103e191906108ff565b908152602001604051809103902060008201518160000160006101000a81548160ff02191690831515021790555060208201518160010155905050505050565b6000600260009054906101000a900473ffffffffffffffffffffffffffffffffffffffff16905090565b600073ffffffffffffffffffffffffffffffffffffffff82169050919050565b60006104768261044b565b9050919050565b6104868161046b565b82525050565b60006020820190506104a1600083018461047d565b92915050565b600081519050919050565b600082825260208201905092915050565b6000819050602082019050919050565b600081519050919050565b600082825260208201905092915050565b60005b8381101561050d5780820151818401526020810190506104f2565b60008484015250505050565b6000601f19601f8301169050919050565b6000610535826104d3565b61053f81856104de565b935061054f8185602086016104ef565b61055881610519565b840191505092915050565b6000819050919050565b61057681610563565b82525050565b60006040830160008301518482036000860152610599828261052a565b91505060208301516105ae602086018261056d565b508091505092915050565b60006105c5838361057c565b905092915050565b6000602082019050919050565b60006105e5826104a7565b6105ef81856104b2565b935083602082028501610601856104c3565b8060005b8581101561063d578484038952815161061e85826105b9565b9450610629836105cd565b925060208a01995050600181019050610605565b50829750879550505050505092915050565b6000602082019050818103600083015261066981846105da565b905092915050565b6000604051905090565b600080fd5b600080fd5b600080fd5b600080fd5b7f4e487b7100000000000000000000000000000000000000000000000000000000600052604160045260246000fd5b6106c782610519565b810181811067ffffffffffffffff821117156106e6576106e561068f565b5b80604052505050565b60006106f9610671565b905061070582826106be565b919050565b600067ffffffffffffffff8211156107255761072461068f565b5b61072e82610519565b9050602081019050919050565b82818337600083830152505050565b600061075d6107588461070a565b6106ef565b9050828152602081018484840111156107795761077861068a565b5b61078484828561073b565b509392505050565b600082601f8301126107a1576107a0610685565b5b81356107b184826020860161074a565b91505092915050565b6000602082840312156107d0576107cf61067b565b5b600082013567ffffffffffffffff8111156107ee576107ed610680565b5b6107fa8482850161078c565b91505092915050565b60008115159050919050565b61081881610803565b82525050565b6000602082019050610833600083018461080f565b92915050565b61084281610563565b82525050565b600060208201905061085d6000830184610839565b92915050565b7f4e487b7100000000000000000000000000000000000000000000000000000000600052602260045260246000fd5b600060028204905060018216806108aa57607f821691505b6020821081036108bd576108bc610863565b5b50919050565b600081905092915050565b60006108d9826104d3565b6108e381856108c3565b93506108f38185602086016104ef565b80840191505092915050565b600061090b82846108ce565b915081905092915050565b600082825260208201905092915050565b7f596f75722057616c6c657461646472657373206e6f74206d617463682077697460008201527f682070726f64756374206f776e65720000000000000000000000000000000000602082015250565b6000610983602f83610916565b915061098e82610927565b604082019050919050565b600060208201905081810360008301526109b281610976565b9050919050565b60008190508160005260206000209050919050565b60006020601f8301049050919050565b600082821b905092915050565b600060088302610a1b7fffffffffffffffffffffffffffffffffffffffffffffffffffffffffffffffff826109de565b610a2586836109de565b95508019841693508086168417925050509392505050565b6000819050919050565b6000610a62610a5d610a5884610563565b610a3d565b610563565b9050919050565b6000819050919050565b610a7c83610a47565b610a90610a8882610a69565b8484546109eb565b825550505050565b600090565b610aa5610a98565b610ab0818484610a73565b505050565b5b81811015610ad457610ac9600082610a9d565b600181019050610ab6565b5050565b601f821115610b1957610aea816109b9565b610af3846109ce565b81016020851015610b02578190505b610b16610b0e856109ce565b830182610ab5565b50505b505050565b600082821c905092915050565b6000610b3c60001984600802610b1e565b1980831691505092915050565b6000610b558383610b2b565b9150826002028217905092915050565b610b6e826104d3565b67ffffffffffffffff811115610b8757610b8661068f565b5b610b918254610892565b610b9c828285610ad8565b600060209050601f831160018114610bcf5760008415610bbd578287015190505b610bc78582610b49565b865550610c2f565b601f198416610bdd866109b9565b60005b82811015610c0557848901518255600182019150602085019450602081019050610be0565b86831015610c225784890151610c1e601f891682610b2b565b8355505b6001600288020188555050505b50505050505056fea2646970667358221220e32ed989d8346e794eddcf9ea26861577edef395289cb2f9fc2e2fb84ed56c8b64736f6c63430008110033a2646970667358221220e5061f25c21f863b9c9b7b40ccda9acfc8baf4da15762309db9785f6b52ef4c464736f6c63430008110033",
  "linkReferences": {},
  "deployedLinkReferences": {}
}